{
  "address": "0x68235ba6321b187ce7b97f907a4c5c31a1cfa84e",
  "abi": [
    {
      "inputs": [
        {
          "internalType": "address payable",
          "name": "_gelato",
          "type": "address"
        }
      ],
      "stateMutability": "nonpayable",
      "type": "constructor"
    },
    {
      "anonymous": false,
      "inputs": [],
      "name": "LogHelloWorld",
      "type": "event"
    },
    {
      "anonymous": false,
      "inputs": [
        {
          "indexed": true,
          "internalType": "address",
          "name": "previousOwner",
          "type": "address"
        },
        {
          "indexed": true,
          "internalType": "address",
          "name": "newOwner",
          "type": "address"
        }
      ],
      "name": "OwnershipTransferred",
      "type": "event"
    },
    {
      "inputs": [],
      "name": "ETH",
      "outputs": [
        {
          "internalType": "address",
          "name": "",
          "type": "address"
        }
      ],
      "stateMutability": "view",
      "type": "function"
    },
    {
      "inputs": [],
      "name": "canExec",
      "outputs": [
        {
          "internalType": "bool",
          "name": "",
          "type": "bool"
        }
      ],
      "stateMutability": "view",
      "type": "function"
    },
    {
      "inputs": [],
      "name": "gelato",
      "outputs": [
        {
          "internalType": "address payable",
          "name": "",
          "type": "address"
        }
      ],
      "stateMutability": "view",
      "type": "function"
    },
    {
      "inputs": [
        {
          "internalType": "uint256",
          "name": "_paymentAmount",
          "type": "uint256"
        }
      ],
      "name": "helloWorld",
      "outputs": [],
      "stateMutability": "nonpayable",
      "type": "function"
    },
    {
      "inputs": [],
      "name": "interval",
      "outputs": [
        {
          "internalType": "uint256",
          "name": "",
          "type": "uint256"
        }
      ],
      "stateMutability": "view",
      "type": "function"
    },
    {
      "inputs": [],
      "name": "lastCallTime",
      "outputs": [
        {
          "internalType": "uint256",
          "name": "",
          "type": "uint256"
        }
      ],
      "stateMutability": "view",
      "type": "function"
    },
    {
      "inputs": [],
      "name": "owner",
      "outputs": [
        {
          "internalType": "address",
          "name": "",
          "type": "address"
        }
      ],
      "stateMutability": "view",
      "type": "function"
    },
    {
      "inputs": [],
      "name": "paymentToken",
      "outputs": [
        {
          "internalType": "address",
          "name": "",
          "type": "address"
        }
      ],
      "stateMutability": "view",
      "type": "function"
    },
    {
      "inputs": [],
      "name": "renounceOwnership",
      "outputs": [],
      "stateMutability": "nonpayable",
      "type": "function"
    },
    {
      "inputs": [
        {
          "internalType": "uint256",
          "name": "_interval",
          "type": "uint256"
        }
      ],
      "name": "setInterval",
      "outputs": [],
      "stateMutability": "nonpayable",
      "type": "function"
    },
    {
      "inputs": [
        {
          "internalType": "address",
          "name": "newOwner",
          "type": "address"
        }
      ],
      "name": "transferOwnership",
      "outputs": [],
      "stateMutability": "nonpayable",
      "type": "function"
    },
    {
      "stateMutability": "payable",
      "type": "receive"
    }
  ],
  "transactionHash": "0x9c1c7667ae40704b0b5b5a1e847164da008436a84f9c2022d0aa4841f4bca8ba",
  "args": [
    "0xCc4CcD69D31F9FfDBD3BFfDe49c6aA886DaB98d9"
  ],
  "solcInputHash": "9fb5aba7757939f5077dae53f501099c",
  "bytecode": "0x60a060405234801561001057600080fd5b50604051610b85380380610b8583398101604081905261002f91610121565b80610039336100d1565b6001600160a01b0381166100935760405162461bcd60e51b815260206004820152601e60248201527f47656c61746f2063616e206e6f74206265207a65726f20616464726573730000604482015260640160405180910390fd5b60601b6001600160601b031916608052506001805473eeeeeeeeeeeeeeeeeeeeeeeeeeeeeeeeeeeeeeee6001600160a01b0319909116179055610151565b600080546001600160a01b038381166001600160a01b0319831681178455604051919092169283917f8be0079c531659141344cd1fd0a4f28419497f9722a3daafe3b4186f6b6457e09190a35050565b60006020828403121561013357600080fd5b81516001600160a01b038116811461014a57600080fd5b9392505050565b60805160601c610a016101846000396000818161011d01528181610292015281816103a9015261047d0152610a016000f3fe6080604052600436106100a05760003560e01c80637d70337d116100645780637d70337d146101745780638322fff2146101995780638da5cb5b146101c1578063947a36fb146101df578063bb7831fc14610203578063f2fde38b1461021957600080fd5b806322a90082146100ac5780633013ce29146100ce578063573ea5751461010b5780635d3a9c291461013f578063715018a61461015f57600080fd5b366100a757005b600080fd5b3480156100b857600080fd5b506100cc6100c73660046108dc565b610239565b005b3480156100da57600080fd5b506001546100ee906001600160a01b031681565b6040516001600160a01b0390911681526020015b60405180910390f35b34801561011757600080fd5b506100ee7f000000000000000000000000000000000000000000000000000000000000000081565b34801561014b57600080fd5b506100cc61015a3660046108dc565b610271565b34801561016b57600080fd5b506100cc6104a7565b34801561018057600080fd5b506101896104dd565b6040519015158152602001610102565b3480156101a557600080fd5b506100ee73eeeeeeeeeeeeeeeeeeeeeeeeeeeeeeeeeeeeeeee81565b3480156101cd57600080fd5b506000546001600160a01b03166100ee565b3480156101eb57600080fd5b506101f560025481565b604051908152602001610102565b34801561020f57600080fd5b506101f560035481565b34801561022557600080fd5b506100cc610234366004610891565b610508565b6000546001600160a01b0316331461026c5760405162461bcd60e51b815260040161026390610944565b60405180910390fd5b600255565b8073eeeeeeeeeeeeeeeeeeeeeeeeeeeeeeeeeeeeeeee336001600160a01b037f000000000000000000000000000000000000000000000000000000000000000016146102ff5760405162461bcd60e51b815260206004820152601760248201527f47656c61746f666965643a204f6e6c792067656c61746f0000000000000000006044820152606401610263565b6103076104dd565b6103535760405162461bcd60e51b815260206004820152601760248201527f68656c6c6f576f726c643a206e6f742063616e457865630000000000000000006044820152606401610263565b426003556040517f39d4ade529111c84adbcaea8978d74baa8405033fe06ba7e0b764c625443ac5a90600090a16001600160a01b03811673eeeeeeeeeeeeeeeeeeeeeeeeeeeeeeeeeeeeeeee141561046e5760007f00000000000000000000000000000000000000000000000000000000000000006001600160a01b03168360405160006040518083038185875af1925050503d8060008114610412576040519150601f19603f3d011682016040523d82523d6000602084013e610417565b606091505b50509050806104685760405162461bcd60e51b815260206004820152601d60248201527f47656c61746f666965643a2047656c61746f20666565206661696c65640000006044820152606401610263565b50505050565b6104a26001600160a01b0382167f0000000000000000000000000000000000000000000000000000000000000000846105a3565b505050565b6000546001600160a01b031633146104d15760405162461bcd60e51b815260040161026390610944565b6104db60006105f5565b565b6000600354600014156104f05750600190565b426002546003546105019190610979565b1115905090565b6000546001600160a01b031633146105325760405162461bcd60e51b815260040161026390610944565b6001600160a01b0381166105975760405162461bcd60e51b815260206004820152602660248201527f4f776e61626c653a206e6577206f776e657220697320746865207a65726f206160448201526564647265737360d01b6064820152608401610263565b6105a0816105f5565b50565b604080516001600160a01b038416602482015260448082018490528251808303909101815260649091019091526020810180516001600160e01b031663a9059cbb60e01b1790526104a2908490610645565b600080546001600160a01b038381166001600160a01b0319831681178455604051919092169283917f8be0079c531659141344cd1fd0a4f28419497f9722a3daafe3b4186f6b6457e09190a35050565b600061069a826040518060400160405280602081526020017f5361666545524332303a206c6f772d6c6576656c2063616c6c206661696c6564815250856001600160a01b03166107179092919063ffffffff16565b8051909150156104a257808060200190518101906106b891906108ba565b6104a25760405162461bcd60e51b815260206004820152602a60248201527f5361666545524332303a204552433230206f7065726174696f6e20646964206e6044820152691bdd081cdd58d8d9595960b21b6064820152608401610263565b60606107268484600085610730565b90505b9392505050565b6060824710156107915760405162461bcd60e51b815260206004820152602660248201527f416464726573733a20696e73756666696369656e742062616c616e636520666f6044820152651c8818d85b1b60d21b6064820152608401610263565b843b6107df5760405162461bcd60e51b815260206004820152601d60248201527f416464726573733a2063616c6c20746f206e6f6e2d636f6e74726163740000006044820152606401610263565b600080866001600160a01b031685876040516107fb91906108f5565b60006040518083038185875af1925050503d8060008114610838576040519150601f19603f3d011682016040523d82523d6000602084013e61083d565b606091505b509150915061084d828286610858565b979650505050505050565b60608315610867575081610729565b8251156108775782518084602001fd5b8160405162461bcd60e51b81526004016102639190610911565b6000602082840312156108a357600080fd5b81356001600160a01b038116811461072957600080fd5b6000602082840312156108cc57600080fd5b8151801515811461072957600080fd5b6000602082840312156108ee57600080fd5b5035919050565b6000825161090781846020870161099f565b9190910192915050565b602081526000825180602084015261093081604085016020870161099f565b601f01601f19169190910160400192915050565b6020808252818101527f4f776e61626c653a2063616c6c6572206973206e6f7420746865206f776e6572604082015260600190565b6000821982111561099a57634e487b7160e01b600052601160045260246000fd5b500190565b60005b838110156109ba5781810151838201526020016109a2565b83811115610468575050600091015256fea264697066735822122087da0eef821b57f539ccc9722ba9a07231cbe3ade4c0f96eb678afd492de70db64736f6c63430008070033",
  "devdoc": {
    "kind": "dev",
    "methods": {
      "owner()": {
        "details": "Returns the address of the current owner."
      },
      "renounceOwnership()": {
        "details": "Leaves the contract without owner. It will not be possible to call `onlyOwner` functions anymore. Can only be called by the current owner. NOTE: Renouncing ownership will leave the contract without an owner, thereby removing any functionality that is only available to the owner."
      },
      "transferOwnership(address)": {
        "details": "Transfers ownership of the contract to a new account (`newOwner`). Can only be called by the current owner."
      }
    },
    "version": 1
  },
  "userdoc": {
    "kind": "user",
    "methods": {},
    "version": 1
  },
  "storageLayout": {
    "storage": [
      {
        "astId": 7,
        "contract": "contracts/HelloWorld.sol:HelloWorld",
        "label": "_owner",
        "offset": 0,
        "slot": "0",
        "type": "t_address"
      },
      {
        "astId": 825,
        "contract": "contracts/HelloWorld.sol:HelloWorld",
        "label": "paymentToken",
        "offset": 0,
        "slot": "1",
        "type": "t_address"
      },
      {
        "astId": 736,
        "contract": "contracts/HelloWorld.sol:HelloWorld",
        "label": "interval",
        "offset": 0,
        "slot": "2",
        "type": "t_uint256"
      },
      {
        "astId": 738,
        "contract": "contracts/HelloWorld.sol:HelloWorld",
        "label": "lastCallTime",
        "offset": 0,
        "slot": "3",
        "type": "t_uint256"
      }
    ],
    "types": {
      "t_address": {
        "encoding": "inplace",
        "label": "address",
        "numberOfBytes": "20"
      },
      "t_uint256": {
        "encoding": "inplace",
        "label": "uint256",
        "numberOfBytes": "32"
      }
    }
  }
}