{
  "address": "0xBC8FB4e265E1Fce8A2D951418a54233E6E736bCD",
  "abi": [
    {
      "inputs": [
        {
          "internalType": "address payable",
          "name": "_gelato",
          "type": "address"
        }
      ],
      "stateMutability": "nonpayable",
      "type": "constructor"
    },
    {
      "anonymous": false,
      "inputs": [],
      "name": "LogHelloWorld",
      "type": "event"
    },
    {
      "anonymous": false,
      "inputs": [
        {
          "indexed": true,
          "internalType": "address",
          "name": "previousOwner",
          "type": "address"
        },
        {
          "indexed": true,
          "internalType": "address",
          "name": "newOwner",
          "type": "address"
        }
      ],
      "name": "OwnershipTransferred",
      "type": "event"
    },
    {
      "inputs": [],
      "name": "ETH",
      "outputs": [
        {
          "internalType": "address",
          "name": "",
          "type": "address"
        }
      ],
      "stateMutability": "view",
      "type": "function"
    },
    {
      "inputs": [],
      "name": "canExec",
      "outputs": [
        {
          "internalType": "bool",
          "name": "",
          "type": "bool"
        }
      ],
      "stateMutability": "view",
      "type": "function"
    },
    {
      "inputs": [],
      "name": "gelato",
      "outputs": [
        {
          "internalType": "address payable",
          "name": "",
          "type": "address"
        }
      ],
      "stateMutability": "view",
      "type": "function"
    },
    {
      "inputs": [
        {
          "internalType": "uint256",
          "name": "_paymentAmount",
          "type": "uint256"
        }
      ],
      "name": "helloWorld",
      "outputs": [],
      "stateMutability": "nonpayable",
      "type": "function"
    },
    {
      "inputs": [],
      "name": "interval",
      "outputs": [
        {
          "internalType": "uint256",
          "name": "",
          "type": "uint256"
        }
      ],
      "stateMutability": "view",
      "type": "function"
    },
    {
      "inputs": [],
      "name": "lastCallTime",
      "outputs": [
        {
          "internalType": "uint256",
          "name": "",
          "type": "uint256"
        }
      ],
      "stateMutability": "view",
      "type": "function"
    },
    {
      "inputs": [],
      "name": "owner",
      "outputs": [
        {
          "internalType": "address",
          "name": "",
          "type": "address"
        }
      ],
      "stateMutability": "view",
      "type": "function"
    },
    {
      "inputs": [],
      "name": "paymentToken",
      "outputs": [
        {
          "internalType": "address",
          "name": "",
          "type": "address"
        }
      ],
      "stateMutability": "view",
      "type": "function"
    },
    {
      "inputs": [],
      "name": "renounceOwnership",
      "outputs": [],
      "stateMutability": "nonpayable",
      "type": "function"
    },
    {
      "inputs": [
        {
          "internalType": "uint256",
          "name": "_interval",
          "type": "uint256"
        }
      ],
      "name": "setInterval",
      "outputs": [],
      "stateMutability": "nonpayable",
      "type": "function"
    },
    {
      "inputs": [
        {
          "internalType": "address",
          "name": "newOwner",
          "type": "address"
        }
      ],
      "name": "transferOwnership",
      "outputs": [],
      "stateMutability": "nonpayable",
      "type": "function"
    }
  ],
  "transactionHash": "0xf3cc3c6a43fa4b62d5d091b75150f7f6e9af4c8f83f4f7d6d929a6fbbd379a37",
  "args": [
    "0xCc4CcD69D31F9FfDBD3BFfDe49c6aA886DaB98d9"
  ],
  "solcInputHash": "95e8663fd507b634e8319ee354011b2a",
  "bytecode": "0x60a060405234801561001057600080fd5b50604051610af7380380610af783398101604081905261002f91610121565b80610039336100d1565b6001600160a01b0381166100935760405162461bcd60e51b815260206004820152601e60248201527f47656c61746f2063616e206e6f74206265207a65726f20616464726573730000604482015260640160405180910390fd5b60601b6001600160601b031916608052506001805473eeeeeeeeeeeeeeeeeeeeeeeeeeeeeeeeeeeeeeee6001600160a01b0319909116179055610151565b600080546001600160a01b038381166001600160a01b0319831681178455604051919092169283917f8be0079c531659141344cd1fd0a4f28419497f9722a3daafe3b4186f6b6457e09190a35050565b60006020828403121561013357600080fd5b81516001600160a01b038116811461014a57600080fd5b9392505050565b60805160601c6109746101836000396000818160f8015281816102050152818161031c01526103f001526109746000f3fe608060405234801561001057600080fd5b50600436106100a95760003560e01c80637d70337d116100715780637d70337d146101355780638322fff21461014d5780638da5cb5b14610168578063947a36fb14610179578063bb7831fc14610190578063f2fde38b1461019957600080fd5b806322a90082146100ae5780633013ce29146100c3578063573ea575146100f35780635d3a9c291461011a578063715018a61461012d575b600080fd5b6100c16100bc36600461084f565b6101ac565b005b6001546100d6906001600160a01b031681565b6040516001600160a01b0390911681526020015b60405180910390f35b6100d67f000000000000000000000000000000000000000000000000000000000000000081565b6100c161012836600461084f565b6101e4565b6100c161041a565b61013d610450565b60405190151581526020016100ea565b6100d673eeeeeeeeeeeeeeeeeeeeeeeeeeeeeeeeeeeeeeee81565b6000546001600160a01b03166100d6565b61018260025481565b6040519081526020016100ea565b61018260035481565b6100c16101a7366004610804565b61047b565b6000546001600160a01b031633146101df5760405162461bcd60e51b81526004016101d6906108b7565b60405180910390fd5b600255565b8073eeeeeeeeeeeeeeeeeeeeeeeeeeeeeeeeeeeeeeee336001600160a01b037f000000000000000000000000000000000000000000000000000000000000000016146102725760405162461bcd60e51b815260206004820152601760248201527f47656c61746f666965643a204f6e6c792067656c61746f00000000000000000060448201526064016101d6565b61027a610450565b6102c65760405162461bcd60e51b815260206004820152601760248201527f68656c6c6f576f726c643a206e6f742063616e4578656300000000000000000060448201526064016101d6565b426003556040517f39d4ade529111c84adbcaea8978d74baa8405033fe06ba7e0b764c625443ac5a90600090a16001600160a01b03811673eeeeeeeeeeeeeeeeeeeeeeeeeeeeeeeeeeeeeeee14156103e15760007f00000000000000000000000000000000000000000000000000000000000000006001600160a01b03168360405160006040518083038185875af1925050503d8060008114610385576040519150601f19603f3d011682016040523d82523d6000602084013e61038a565b606091505b50509050806103db5760405162461bcd60e51b815260206004820152601d60248201527f47656c61746f666965643a2047656c61746f20666565206661696c656400000060448201526064016101d6565b50505050565b6104156001600160a01b0382167f000000000000000000000000000000000000000000000000000000000000000084610516565b505050565b6000546001600160a01b031633146104445760405162461bcd60e51b81526004016101d6906108b7565b61044e6000610568565b565b6000600354600014156104635750600190565b4260025460035461047491906108ec565b1115905090565b6000546001600160a01b031633146104a55760405162461bcd60e51b81526004016101d6906108b7565b6001600160a01b03811661050a5760405162461bcd60e51b815260206004820152602660248201527f4f776e61626c653a206e6577206f776e657220697320746865207a65726f206160448201526564647265737360d01b60648201526084016101d6565b61051381610568565b50565b604080516001600160a01b038416602482015260448082018490528251808303909101815260649091019091526020810180516001600160e01b031663a9059cbb60e01b1790526104159084906105b8565b600080546001600160a01b038381166001600160a01b0319831681178455604051919092169283917f8be0079c531659141344cd1fd0a4f28419497f9722a3daafe3b4186f6b6457e09190a35050565b600061060d826040518060400160405280602081526020017f5361666545524332303a206c6f772d6c6576656c2063616c6c206661696c6564815250856001600160a01b031661068a9092919063ffffffff16565b805190915015610415578080602001905181019061062b919061082d565b6104155760405162461bcd60e51b815260206004820152602a60248201527f5361666545524332303a204552433230206f7065726174696f6e20646964206e6044820152691bdd081cdd58d8d9595960b21b60648201526084016101d6565b606061069984846000856106a3565b90505b9392505050565b6060824710156107045760405162461bcd60e51b815260206004820152602660248201527f416464726573733a20696e73756666696369656e742062616c616e636520666f6044820152651c8818d85b1b60d21b60648201526084016101d6565b843b6107525760405162461bcd60e51b815260206004820152601d60248201527f416464726573733a2063616c6c20746f206e6f6e2d636f6e747261637400000060448201526064016101d6565b600080866001600160a01b0316858760405161076e9190610868565b60006040518083038185875af1925050503d80600081146107ab576040519150601f19603f3d011682016040523d82523d6000602084013e6107b0565b606091505b50915091506107c08282866107cb565b979650505050505050565b606083156107da57508161069c565b8251156107ea5782518084602001fd5b8160405162461bcd60e51b81526004016101d69190610884565b60006020828403121561081657600080fd5b81356001600160a01b038116811461069c57600080fd5b60006020828403121561083f57600080fd5b8151801515811461069c57600080fd5b60006020828403121561086157600080fd5b5035919050565b6000825161087a818460208701610912565b9190910192915050565b60208152600082518060208401526108a3816040850160208701610912565b601f01601f19169190910160400192915050565b6020808252818101527f4f776e61626c653a2063616c6c6572206973206e6f7420746865206f776e6572604082015260600190565b6000821982111561090d57634e487b7160e01b600052601160045260246000fd5b500190565b60005b8381101561092d578181015183820152602001610915565b838111156103db575050600091015256fea26469706673582212205fe8daffd85da23476a4ad8ddc0bada23ffd172432a5fc612a75244b4f12b2d964736f6c63430008070033",
  "devdoc": {
    "kind": "dev",
    "methods": {
      "owner()": {
        "details": "Returns the address of the current owner."
      },
      "renounceOwnership()": {
        "details": "Leaves the contract without owner. It will not be possible to call `onlyOwner` functions anymore. Can only be called by the current owner. NOTE: Renouncing ownership will leave the contract without an owner, thereby removing any functionality that is only available to the owner."
      },
      "transferOwnership(address)": {
        "details": "Transfers ownership of the contract to a new account (`newOwner`). Can only be called by the current owner."
      }
    },
    "version": 1
  },
  "userdoc": {
    "kind": "user",
    "methods": {},
    "version": 1
  },
  "storageLayout": {
    "storage": [
      {
        "astId": 7,
        "contract": "contracts/HelloWorld.sol:HelloWorld",
        "label": "_owner",
        "offset": 0,
        "slot": "0",
        "type": "t_address"
      },
      {
        "astId": 821,
        "contract": "contracts/HelloWorld.sol:HelloWorld",
        "label": "paymentToken",
        "offset": 0,
        "slot": "1",
        "type": "t_address"
      },
      {
        "astId": 736,
        "contract": "contracts/HelloWorld.sol:HelloWorld",
        "label": "interval",
        "offset": 0,
        "slot": "2",
        "type": "t_uint256"
      },
      {
        "astId": 738,
        "contract": "contracts/HelloWorld.sol:HelloWorld",
        "label": "lastCallTime",
        "offset": 0,
        "slot": "3",
        "type": "t_uint256"
      }
    ],
    "types": {
      "t_address": {
        "encoding": "inplace",
        "label": "address",
        "numberOfBytes": "20"
      },
      "t_uint256": {
        "encoding": "inplace",
        "label": "uint256",
        "numberOfBytes": "32"
      }
    }
  }
}