{
  "address": "0x5c54A5C104f90f5F987FeE09e3C579F40AC43301",
  "abi": [
    {
      "inputs": [
        {
          "internalType": "address payable",
          "name": "_gelato",
          "type": "address"
        }
      ],
      "stateMutability": "nonpayable",
      "type": "constructor"
    },
    {
      "anonymous": false,
      "inputs": [],
      "name": "LogHelloWorld",
      "type": "event"
    },
    {
      "inputs": [],
      "name": "ETH",
      "outputs": [
        {
          "internalType": "address",
          "name": "",
          "type": "address"
        }
      ],
      "stateMutability": "view",
      "type": "function"
    },
    {
      "inputs": [],
      "name": "canExec",
      "outputs": [
        {
          "internalType": "bool",
          "name": "",
          "type": "bool"
        }
      ],
      "stateMutability": "view",
      "type": "function"
    },
    {
      "inputs": [],
      "name": "gelato",
      "outputs": [
        {
          "internalType": "address payable",
          "name": "",
          "type": "address"
        }
      ],
      "stateMutability": "view",
      "type": "function"
    },
    {
      "inputs": [
        {
          "internalType": "uint256",
          "name": "_paymentAmount",
          "type": "uint256"
        }
      ],
      "name": "helloWorld",
      "outputs": [],
      "stateMutability": "nonpayable",
      "type": "function"
    },
    {
      "inputs": [],
      "name": "interval",
      "outputs": [
        {
          "internalType": "uint256",
          "name": "",
          "type": "uint256"
        }
      ],
      "stateMutability": "view",
      "type": "function"
    },
    {
      "inputs": [],
      "name": "lastCallTime",
      "outputs": [
        {
          "internalType": "uint256",
          "name": "",
          "type": "uint256"
        }
      ],
      "stateMutability": "view",
      "type": "function"
    },
    {
      "inputs": [],
      "name": "paymentToken",
      "outputs": [
        {
          "internalType": "address",
          "name": "",
          "type": "address"
        }
      ],
      "stateMutability": "view",
      "type": "function"
    },
    {
      "inputs": [
        {
          "internalType": "uint256",
          "name": "_interval",
          "type": "uint256"
        }
      ],
      "name": "setInterval",
      "outputs": [],
      "stateMutability": "nonpayable",
      "type": "function"
    }
  ],
  "transactionHash": "0x97f1e6d92ca2beebf3b1e814c44a35f2543c6878b2ca7946e381b4cf4b0eb43b",
  "args": [
    "0x7C5c4Af1618220C090A6863175de47afb20fa9Df"
  ],
  "solcInputHash": "cdb6f3cbc6e080569b96c3658adaffaa",
  "bytecode": "0x60a060405234801561001057600080fd5b5060405161090038038061090083398101604081905261002f916100c8565b806001600160a01b03811661008a5760405162461bcd60e51b815260206004820152601e60248201527f47656c61746f2063616e206e6f74206265207a65726f20616464726573730000604482015260640160405180910390fd5b60601b6001600160601b031916608052506000805473eeeeeeeeeeeeeeeeeeeeeeeeeeeeeeeeeeeeeeee6001600160a01b03199091161790556100f8565b6000602082840312156100da57600080fd5b81516001600160a01b03811681146100f157600080fd5b9392505050565b60805160601c6107d661012a6000396000818160d7015281816101fd0152818161031401526103e801526107d66000f3fe608060405234801561001057600080fd5b50600436106100885760003560e01c80637d70337d1161005b5780637d70337d1461010c5780638322fff214610124578063947a36fb1461013f578063bb7831fc1461015657600080fd5b806322a900821461008d5780633013ce29146100a2578063573ea575146100d25780635d3a9c29146100f9575b600080fd5b6100a061009b3660046106e6565b61015f565b005b6000546100b5906001600160a01b031681565b6040516001600160a01b0390911681526020015b60405180910390f35b6100b57f000000000000000000000000000000000000000000000000000000000000000081565b6100a06101073660046106e6565b6101dc565b610114610412565b60405190151581526020016100c9565b6100b573eeeeeeeeeeeeeeeeeeeeeeeeeeeeeeeeeeeeeeee81565b61014860015481565b6040519081526020016100c9565b61014860025481565b7fb53127684a568b3173ae13b9f8a6016e243e63b6e8ee1178d6a717850b5d6103546001600160a01b0316336001600160a01b0316146101d75760405162461bcd60e51b815260206004820152600e60248201526d1393d517d055551213d49256915160921b60448201526064015b60405180910390fd5b600155565b8073eeeeeeeeeeeeeeeeeeeeeeeeeeeeeeeeeeeeeeee336001600160a01b037f0000000000000000000000000000000000000000000000000000000000000000161461026a5760405162461bcd60e51b815260206004820152601760248201527f47656c61746f666965643a204f6e6c792067656c61746f00000000000000000060448201526064016101ce565b610272610412565b6102be5760405162461bcd60e51b815260206004820152601760248201527f68656c6c6f576f726c643a206e6f742063616e4578656300000000000000000060448201526064016101ce565b426002556040517f39d4ade529111c84adbcaea8978d74baa8405033fe06ba7e0b764c625443ac5a90600090a16001600160a01b03811673eeeeeeeeeeeeeeeeeeeeeeeeeeeeeeeeeeeeeeee14156103d95760007f00000000000000000000000000000000000000000000000000000000000000006001600160a01b03168360405160006040518083038185875af1925050503d806000811461037d576040519150601f19603f3d011682016040523d82523d6000602084013e610382565b606091505b50509050806103d35760405162461bcd60e51b815260206004820152601d60248201527f47656c61746f666965643a2047656c61746f20666565206661696c656400000060448201526064016101ce565b50505050565b61040d6001600160a01b0382167f00000000000000000000000000000000000000000000000000000000000000008461043d565b505050565b6000600254600014156104255750600190565b42600154600254610436919061074e565b1115905090565b604080516001600160a01b03848116602483015260448083018590528351808403909101815260649092018352602080830180516001600160e01b031663a9059cbb60e01b17905283518085019094528084527f5361666545524332303a206c6f772d6c6576656c2063616c6c206661696c65649084015261040d928692916000916104cd91851690849061054a565b80519091501561040d57808060200190518101906104eb91906106c4565b61040d5760405162461bcd60e51b815260206004820152602a60248201527f5361666545524332303a204552433230206f7065726174696f6e20646964206e6044820152691bdd081cdd58d8d9595960b21b60648201526084016101ce565b60606105598484600085610563565b90505b9392505050565b6060824710156105c45760405162461bcd60e51b815260206004820152602660248201527f416464726573733a20696e73756666696369656e742062616c616e636520666f6044820152651c8818d85b1b60d21b60648201526084016101ce565b843b6106125760405162461bcd60e51b815260206004820152601d60248201527f416464726573733a2063616c6c20746f206e6f6e2d636f6e747261637400000060448201526064016101ce565b600080866001600160a01b0316858760405161062e91906106ff565b60006040518083038185875af1925050503d806000811461066b576040519150601f19603f3d011682016040523d82523d6000602084013e610670565b606091505b509150915061068082828661068b565b979650505050505050565b6060831561069a57508161055c565b8251156106aa5782518084602001fd5b8160405162461bcd60e51b81526004016101ce919061071b565b6000602082840312156106d657600080fd5b8151801515811461055c57600080fd5b6000602082840312156106f857600080fd5b5035919050565b60008251610711818460208701610774565b9190910192915050565b602081526000825180602084015261073a816040850160208701610774565b601f01601f19169190910160400192915050565b6000821982111561076f57634e487b7160e01b600052601160045260246000fd5b500190565b60005b8381101561078f578181015183820152602001610777565b838111156103d3575050600091015256fea2646970667358221220f44b4dbab416238cbeeefd3b23d7ddc7d0a463916cd8323a7ed88fc1d117160c64736f6c63430008070033",
  "devdoc": {
    "kind": "dev",
    "methods": {},
    "version": 1
  },
  "userdoc": {
    "kind": "user",
    "methods": {},
    "version": 1
  },
  "storageLayout": {
    "storage": [
      {
        "astId": 695,
        "contract": "contracts/HelloWorld.sol:HelloWorld",
        "label": "paymentToken",
        "offset": 0,
        "slot": "0",
        "type": "t_address"
      },
      {
        "astId": 610,
        "contract": "contracts/HelloWorld.sol:HelloWorld",
        "label": "interval",
        "offset": 0,
        "slot": "1",
        "type": "t_uint256"
      },
      {
        "astId": 612,
        "contract": "contracts/HelloWorld.sol:HelloWorld",
        "label": "lastCallTime",
        "offset": 0,
        "slot": "2",
        "type": "t_uint256"
      }
    ],
    "types": {
      "t_address": {
        "encoding": "inplace",
        "label": "address",
        "numberOfBytes": "20"
      },
      "t_uint256": {
        "encoding": "inplace",
        "label": "uint256",
        "numberOfBytes": "32"
      }
    }
  }
}