{
  "address": "0x24D677f8A59A486BfC6d87E9453C4f1fEfcB0958",
  "abi": [
    {
      "inputs": [
        {
          "internalType": "address",
          "name": "implementationAddress",
          "type": "address"
        },
        {
          "internalType": "address",
          "name": "ownerAddress",
          "type": "address"
        },
        {
          "internalType": "bytes",
          "name": "data",
          "type": "bytes"
        }
      ],
      "stateMutability": "payable",
      "type": "constructor"
    },
    {
      "anonymous": false,
      "inputs": [
        {
          "indexed": true,
          "internalType": "address",
          "name": "previousOwner",
          "type": "address"
        },
        {
          "indexed": true,
          "internalType": "address",
          "name": "newOwner",
          "type": "address"
        }
      ],
      "name": "OwnershipTransferred",
      "type": "event"
    },
    {
      "anonymous": false,
      "inputs": [
        {
          "indexed": true,
          "internalType": "address",
          "name": "previousImplementation",
          "type": "address"
        },
        {
          "indexed": true,
          "internalType": "address",
          "name": "newImplementation",
          "type": "address"
        }
      ],
      "name": "ProxyImplementationUpdated",
      "type": "event"
    },
    {
      "stateMutability": "payable",
      "type": "fallback"
    },
    {
      "inputs": [],
      "name": "owner",
      "outputs": [
        {
          "internalType": "address",
          "name": "",
          "type": "address"
        }
      ],
      "stateMutability": "view",
      "type": "function"
    },
    {
      "inputs": [
        {
          "internalType": "bytes4",
          "name": "id",
          "type": "bytes4"
        }
      ],
      "name": "supportsInterface",
      "outputs": [
        {
          "internalType": "bool",
          "name": "",
          "type": "bool"
        }
      ],
      "stateMutability": "view",
      "type": "function"
    },
    {
      "inputs": [
        {
          "internalType": "address",
          "name": "newOwner",
          "type": "address"
        }
      ],
      "name": "transferOwnership",
      "outputs": [],
      "stateMutability": "nonpayable",
      "type": "function"
    },
    {
      "inputs": [
        {
          "internalType": "address",
          "name": "newImplementation",
          "type": "address"
        }
      ],
      "name": "upgradeTo",
      "outputs": [],
      "stateMutability": "nonpayable",
      "type": "function"
    },
    {
      "inputs": [
        {
          "internalType": "address",
          "name": "newImplementation",
          "type": "address"
        },
        {
          "internalType": "bytes",
          "name": "data",
          "type": "bytes"
        }
      ],
      "name": "upgradeToAndCall",
      "outputs": [],
      "stateMutability": "payable",
      "type": "function"
    },
    {
      "stateMutability": "payable",
      "type": "receive"
    }
  ],
  "transactionHash": "0x4dbd7e57a54c246f6902ef57722a8c3630f754b590c9308b726e3505c08447dd",
  "args": [
    "0x5c54A5C104f90f5F987FeE09e3C579F40AC43301",
    "0x6Fde30A7F4709A1739a32A8235Af651C038CeDf9",
    "0x"
  ],
  "solcInputHash": "2db89642daf7ebd20cbbef9f4540b20d",
  "bytecode": "0x6080604052604051610b8e380380610b8e8339818101604052606081101561002657600080fd5b8151602083015160408085018051915193959294830192918464010000000082111561005157600080fd5b90830190602082018581111561006657600080fd5b825164010000000081118282018810171561008057600080fd5b82525081516020918201929091019080838360005b838110156100ad578181015183820152602001610095565b50505050905090810190601f1680156100da5780820380516001836020036101000a031916815260200191505b506040525050508282826100f4838261010860201b60201c565b6100fd8261022b565b50505050505061029f565b7f360894a13ba1a3210667c828492db98dca3e2076cc3735a920a3ca505d382bbc8054908390556040516001600160a01b0380851691908316907f5570d70a002632a7b0b3c9304cc89efb62d8da9eca0dbd7752c83b737906829690600090a3815115610226576000836001600160a01b0316836040518082805190602001908083835b602083106101ab5780518252601f19909201916020918201910161018c565b6001836020036101000a038019825116818451168082178552505050505050905001915050600060405180830381855af49150503d806000811461020b576040519150601f19603f3d011682016040523d82523d6000602084013e610210565b606091505b5050905080610224573d806000803e806000fd5b505b505050565b600061023561028c565b905081600080516020610b6e83398151915255816001600160a01b0316816001600160a01b03167f8be0079c531659141344cd1fd0a4f28419497f9722a3daafe3b4186f6b6457e060405160405180910390a35050565b600080516020610b6e8339815191525490565b6108c0806102ae6000396000f3fe60806040526004361061005e5760003560e01c80634f1ef286116100435780634f1ef2861461010f5780638da5cb5b1461019c578063f2fde38b146101da57610065565b806301ffc9a71461006f5780633659cfe6146100cf57610065565b3661006557005b61006d61021a565b005b34801561007b57600080fd5b506100bb6004803603602081101561009257600080fd5b50357fffffffff0000000000000000000000000000000000000000000000000000000016610265565b604080519115158252519081900360200190f35b3480156100db57600080fd5b5061006d600480360360208110156100f257600080fd5b503573ffffffffffffffffffffffffffffffffffffffff16610428565b61006d6004803603604081101561012557600080fd5b73ffffffffffffffffffffffffffffffffffffffff823516919081019060408101602082013564010000000081111561015d57600080fd5b82018360208201111561016f57600080fd5b8035906020019184600183028401116401000000008311171561019157600080fd5b5090925090506104e5565b3480156101a857600080fd5b506101b16105cb565b6040805173ffffffffffffffffffffffffffffffffffffffff9092168252519081900360200190f35b3480156101e657600080fd5b5061006d600480360360208110156101fd57600080fd5b503573ffffffffffffffffffffffffffffffffffffffff166105da565b7f360894a13ba1a3210667c828492db98dca3e2076cc3735a920a3ca505d382bbc5460003681823780813683855af491503d8082833e82801561025b578183f35b8183fd5b50505050565b60007f01ffc9a7000000000000000000000000000000000000000000000000000000007fffffffff00000000000000000000000000000000000000000000000000000000831614806102f857507f7f5828d0000000000000000000000000000000000000000000000000000000007fffffffff000000000000000000000000000000000000000000000000000000008316145b1561030557506001610423565b7fffffffff00000000000000000000000000000000000000000000000000000000808316141561033757506000610423565b7f360894a13ba1a3210667c828492db98dca3e2076cc3735a920a3ca505d382bbc54604080517f01ffc9a70000000000000000000000000000000000000000000000000000000081527fffffffff0000000000000000000000000000000000000000000000000000000085166004820152905173ffffffffffffffffffffffffffffffffffffffff8316916301ffc9a7916024808301926020929190829003018186803b1580156103e757600080fd5b505afa92505050801561040c57506040513d602081101561040757600080fd5b505160015b61041a576000915050610423565b91506104239050565b919050565b610430610684565b73ffffffffffffffffffffffffffffffffffffffff163373ffffffffffffffffffffffffffffffffffffffff16146104c957604080517f08c379a000000000000000000000000000000000000000000000000000000000815260206004820152600e60248201527f4e4f545f415554484f52495a4544000000000000000000000000000000000000604482015290519081900360640190fd5b6104e281604051806020016040528060008152506106a9565b50565b6104ed610684565b73ffffffffffffffffffffffffffffffffffffffff163373ffffffffffffffffffffffffffffffffffffffff161461058657604080517f08c379a000000000000000000000000000000000000000000000000000000000815260206004820152600e60248201527f4e4f545f415554484f52495a4544000000000000000000000000000000000000604482015290519081900360640190fd5b6105c68383838080601f0160208091040260200160405190810160405280939291908181526020018383808284376000920191909152506106a992505050565b505050565b60006105d5610684565b905090565b6105e2610684565b73ffffffffffffffffffffffffffffffffffffffff163373ffffffffffffffffffffffffffffffffffffffff161461067b57604080517f08c379a000000000000000000000000000000000000000000000000000000000815260206004820152600e60248201527f4e4f545f415554484f52495a4544000000000000000000000000000000000000604482015290519081900360640190fd5b6104e2816107fd565b7fb53127684a568b3173ae13b9f8a6016e243e63b6e8ee1178d6a717850b5d61035490565b7f360894a13ba1a3210667c828492db98dca3e2076cc3735a920a3ca505d382bbc80549083905560405173ffffffffffffffffffffffffffffffffffffffff80851691908316907f5570d70a002632a7b0b3c9304cc89efb62d8da9eca0dbd7752c83b737906829690600090a38151156105c65760008373ffffffffffffffffffffffffffffffffffffffff16836040518082805190602001908083835b6020831061078457805182527fffffffffffffffffffffffffffffffffffffffffffffffffffffffffffffffe09092019160209182019101610747565b6001836020036101000a038019825116818451168082178552505050505050905001915050600060405180830381855af49150503d80600081146107e4576040519150601f19603f3d011682016040523d82523d6000602084013e6107e9565b606091505b505090508061025f573d806000803e806000fd5b6000610807610684565b9050817fb53127684a568b3173ae13b9f8a6016e243e63b6e8ee1178d6a717850b5d6103558173ffffffffffffffffffffffffffffffffffffffff168173ffffffffffffffffffffffffffffffffffffffff167f8be0079c531659141344cd1fd0a4f28419497f9722a3daafe3b4186f6b6457e060405160405180910390a3505056fea2646970667358221220f6734e2f5e7412e016ccdc27ea9b9d47696b2352d217637cd7b9bf24fe9ace7d64736f6c63430007060033b53127684a568b3173ae13b9f8a6016e243e63b6e8ee1178d6a717850b5d6103",
  "devdoc": {
    "kind": "dev",
    "methods": {},
    "version": 1
  },
  "userdoc": {
    "kind": "user",
    "methods": {},
    "notice": "Proxy implementing EIP173 for ownership management that accept ETH via receive",
    "version": 1
  },
  "storageLayout": {
    "storage": [],
    "types": null
  }
}