{
  "address": "0x0E8A28D95E8B9aAe6ac469b6796F5945fd613A7F",
  "abi": [
    {
      "inputs": [
        {
          "internalType": "address payable",
          "name": "_gelato",
          "type": "address"
        }
      ],
      "stateMutability": "nonpayable",
      "type": "constructor"
    },
    {
      "anonymous": false,
      "inputs": [],
      "name": "LogHelloWorld",
      "type": "event"
    },
    {
      "inputs": [],
      "name": "canExec",
      "outputs": [
        {
          "internalType": "bool",
          "name": "",
          "type": "bool"
        }
      ],
      "stateMutability": "view",
      "type": "function"
    },
    {
      "inputs": [],
      "name": "gelato",
      "outputs": [
        {
          "internalType": "address",
          "name": "",
          "type": "address"
        }
      ],
      "stateMutability": "view",
      "type": "function"
    },
    {
      "inputs": [
        {
          "internalType": "uint256",
          "name": "_paymentAmount",
          "type": "uint256"
        }
      ],
      "name": "helloWorld",
      "outputs": [],
      "stateMutability": "nonpayable",
      "type": "function"
    },
    {
      "inputs": [],
      "name": "interval",
      "outputs": [
        {
          "internalType": "uint256",
          "name": "",
          "type": "uint256"
        }
      ],
      "stateMutability": "view",
      "type": "function"
    },
    {
      "inputs": [],
      "name": "lastCallTime",
      "outputs": [
        {
          "internalType": "uint256",
          "name": "",
          "type": "uint256"
        }
      ],
      "stateMutability": "view",
      "type": "function"
    },
    {
      "inputs": [
        {
          "internalType": "uint256",
          "name": "_interval",
          "type": "uint256"
        }
      ],
      "name": "setInterval",
      "outputs": [],
      "stateMutability": "nonpayable",
      "type": "function"
    }
  ],
  "transactionHash": "0xdcb8189e2d636270592ac6eb595f894b9f4ba6767880b5826e1edb55907556ce",
  "args": [
    "0x683913B3A32ada4F8100458A3E1675425BdAa7DF"
  ],
  "numDeployments": 1,
  "solcInputHash": "3466de0f6d955230d4a4440fd509a2e4",
  "bytecode": "0x60a060405234801561000f575f80fd5b506040516104ee3803806104ee83398101604081905261002e9161003f565b6001600160a01b031660805261006c565b5f6020828403121561004f575f80fd5b81516001600160a01b0381168114610065575f80fd5b9392505050565b60805161045d6100915f395f8181607e0152818161018e0152610259015261045d5ff3fe608060405234801561000f575f80fd5b5060043610610060575f3560e01c806322a9008214610064578063573ea575146100795780635d3a9c29146100bd5780637d70337d146100d0578063947a36fb146100e8578063bb7831fc146100fe575b5f80fd5b6100776100723660046103eb565b610107565b005b6100a07f000000000000000000000000000000000000000000000000000000000000000081565b6040516001600160a01b0390911681526020015b60405180910390f35b6100776100cb3660046103eb565b610183565b6100d86102aa565b60405190151581526020016100b4565b6100f05f5481565b6040519081526020016100b4565b6100f060015481565b7fb53127684a568b3173ae13b9f8a6016e243e63b6e8ee1178d6a717850b5d6103546001600160a01b0316336001600160a01b03161461017f5760405162461bcd60e51b815260206004820152600e60248201526d1393d517d055551213d49256915160921b60448201526064015b60405180910390fd5b5f55565b336001600160a01b037f000000000000000000000000000000000000000000000000000000000000000016146101f45760405162461bcd60e51b815260206004820152601660248201527548656c6c6f576f726c643a3a6f6e6c7947656c61746f60501b6044820152606401610176565b6101fc6102aa565b6102485760405162461bcd60e51b815260206004820152601760248201527f68656c6c6f576f726c643a206e6f742063616e457865630000000000000000006044820152606401610176565b4260015561027f6001600160a01b037f000000000000000000000000000000000000000000000000000000000000000016826102d1565b6040517f39d4ade529111c84adbcaea8978d74baa8405033fe06ba7e0b764c625443ac5a905f90a150565b5f6001545f036102ba5750600190565b425f546001546102ca9190610402565b1115905090565b804710156103215760405162461bcd60e51b815260206004820152601d60248201527f416464726573733a20696e73756666696369656e742062616c616e63650000006044820152606401610176565b5f826001600160a01b0316826040515f6040518083038185875af1925050503d805f811461036a576040519150601f19603f3d011682016040523d82523d5f602084013e61036f565b606091505b50509050806103e65760405162461bcd60e51b815260206004820152603a60248201527f416464726573733a20756e61626c6520746f2073656e642076616c75652c207260448201527f6563697069656e74206d617920686176652072657665727465640000000000006064820152608401610176565b505050565b5f602082840312156103fb575f80fd5b5035919050565b8082018082111561042157634e487b7160e01b5f52601160045260245ffd5b9291505056fea264697066735822122099d31c08e466d8c6d9a2534b6e79fa3b5ef47176405d360fcd4ae3d5ffe7f61e64736f6c63430008150033",
  "devdoc": {
    "kind": "dev",
    "methods": {},
    "version": 1
  },
  "userdoc": {
    "kind": "user",
    "methods": {},
    "version": 1
  },
  "storageLayout": {
    "storage": [
      {
        "astId": 344,
        "contract": "contracts/HelloWorld.sol:HelloWorld",
        "label": "interval",
        "offset": 0,
        "slot": "0",
        "type": "t_uint256"
      },
      {
        "astId": 346,
        "contract": "contracts/HelloWorld.sol:HelloWorld",
        "label": "lastCallTime",
        "offset": 0,
        "slot": "1",
        "type": "t_uint256"
      }
    ],
    "types": {
      "t_uint256": {
        "encoding": "inplace",
        "label": "uint256",
        "numberOfBytes": "32"
      }
    }
  }
}